:100000000C9488000C94B2170C94B2170C94B2178D
:100010000C94B2170C94B2170C94CC0B0C94B2172E
:100020000C94B2170C941F130C94B2170C94B217C3
:100030000C94B2170C94B2170C94B2170C94B2171C
:100040000C94B2170C94B2170C94B2170C94B2170C
:100050000C94B2174009C309C309C309C3091F0996
:10006000C309C309C309C309C309C309C3094B09A8
:100070003509C309560961096C09770982098D0997
:100080009809A309AE09B909C309C309C3092A0913
:10009000C309C309C3096408C309B108C7088508AF
:1000A0006F08C309E8081409C309DD08C309FE087D
:1000B000A608C309C30990087A080909D2089B0851
:1000C000C309C309C309BC08F308C309C309C309A9
:1000D000C309C309C3096408C309B108C70885086F
:1000E0006F08C309E8081409C309DD08C309FE083D
:1000F000A608C309C30990087A080909D2089B0811
:10010000C309C309C309BC08F308006000A6800046
:1001100011241FBECFE5D8E0DEBFCDBFEAE0F1E09D
:1001200041E017C0B591A59135912591059107FD45
:100130000CC095918591EF01F92FE82F05900D9254
:10014000A217B307D9F7FE0104C01D92A217B30787
:10015000E1F7EF30F40731F70E9433140C942A17BB
:04016000F894FFCF41
:10016400667265713D25302E326620487A006475CA
:1001740074793D25302E3166252500543D25302ED9
:060184003266206D7300DD
:10018A0068076C094C836A9074A07AC000806888FA
:06019A0000846C8200816C
:1001A000494E4600696E66004E414E006E616E001B
:0601B000286E696C2900B5
:1001B600A3EAB0E0E1EEF0E00C94B1154C01590170
:1001C600C756DF4F488359836A83C959D040212CCB
:1001D600312C6E012BE8C20ED11C85E2782E260149
:1001E60030E8632ECE018D569F4FC456DF4F99835C
:1001F6008883CC59D0409C0140E8CF55DF4F2883F7
:1002060039834A83C15AD040C756DF4F4881C959FE
:10021600D040C656DF4F5881CA59D040C556DF4F29
:100226006881CB59D040FA01849167FD808188238B
:1002360009F4C9C3CF57DF4F19821882C158D0407D
:100246008FEF9FEFCD57DF4F99838883C358D040F8
:10025600CB57DF4F19821882C558D040A1E0B0E0D5
:10026600AC0FBD1FC957DF4FB983A883C758D0400D
:10027600E0E8F0E0C757DF4FF983E883C958D0407C
:10028600CA01A62FE12CF12CFC012491A7FD2081A7
:1002960021111BC0E114F10401F19701C4010E9470
:1002A600D013C756DF4F88819981AA81C959D0409A
:1002B6008E0D9F1DA11DF7FCAA95C756DF4F88839B
:1002C6009983AA83C959D04008C00196A11D253239
:1002D60009F3FFEFEF1AFF0AD7CFC756DF4F888122
:1002E6009981AA81C959D040FC012491A7FD20819A
:1002F600253209F056C39C014A2F2F5F3F4F4F4FBF
:10030600C256DF4F288339834A83CE59D040C75619
:10031600DF4F288339834A83C959D040C756DF4FF8
:1003260088819981AA81C959D040FC012491A7FDF1
:1003360020812B3241F4CF57DF4F28813981C158B4
:10034600D04024600BC02C32CCF02D3259F5CF575B
:10035600DF4F28813981C158D0402160CF57DF4F08
:1003660039832883C158D0400196A11DC756DF4F57
:1003760088839983AA83C959D040D0CF203241F4CB
:10038600CF57DF4F28813981C158D0402860E6CF4A
:10039600233291F4CF57DF4F28813981C158D0409D
:1003A6002061DCCF203341F4CF57DF4F28813981DC
:1003B600C158D0402260D2CF2A3299F50196A11DAC
:1003C600C756DF4F88839983AA83C959D040D50180
:1003D600ED91FC911197CF0102968D939C938081AC
:1003E6009181CB57DF4F99838883C558D04097FFBB
:1003F6003EC0CF57DF4F28813981C158D040B1E088
:100406002B27CF57DF4F39832883C158D04091958A
:1004160081959109CB57DF4F99838883C558D04082
:1004260026C0BC018A2F0E949412CB57DF4F9983B6
:100436008883C558D040C756DF4F288139814A8105
:10044600C959D040F901849147FD8081082E000CDE
:10045600990BC0970A9758F42F5F3F4F4F4FC756D7
:10046600DF4F288339834A83C959D040E4CFCF5719
:10047600DF4F88819981C158D04080FF07C08D7FAA
:10048600CF57DF4F99838883C158D040C756DF4F77
:1004960088819981AA81C959D040FC012491A7FD80
:1004A60020812E3209F058C0CD57DF4F19821882AD
:1004B600C358D0409C014A2F2F5F3F4F4F4FC7561E
:1004C600DF4F288339834A83C959D040F9015491B3
:1004D60047FD50815A32D1F40296A11DC756DF4F0F
:1004E60088839983AA83C959D040D501ED91FC919F
:1004F6001197CF0102968D939C9380819181CD5760
:10050600DF4F99838883C358D04026C0842FB90112
:100516000E949412CD57DF4F99838883C358D040E9
:10052600C756DF4F288139814A81C959D040F90120
:10053600849147FD8081082E000C990BC0970A977D
:1005460058F42F5F3F4F4F4FC756DF4F28833983ED
:100556004A83C959D040E4CFCE0187569F4F0E94A7
:10056600FC11182FC756DF4F2881C959D040C656EF
:10057600DF4F8881CA59D040C556DF4F9881CB5985
:10058600D040E22FF82F849197FD8081082E000C31
:10059600990B0E9459178936910509F45AC0B4F48B
:1005A6008336910509F466C144F48532910509F450
:1005B600A1C18136910529F1B3C18436910509F4AB
:1005C60048C0883691050CF42DC1AAC18037910523
:1005D60009F4CBC04CF48E36910509F419C18F3657
:1005E600910509F47CC09CC18537910509F454C076
:1005F6008837910509F496C08337910509F090C1B3
:1006060058C1612F70E0A501C6010E945615892BBD
:1006160009F4B7C1C756DF4F88819981AA81C959A4
:10062600D0409C014A2F2F5F3F4F4F4FC756DF4F99
:10063600288339834A83C959D040FC012491A7FDF8
:100646002081A601BE016F577F4FC4010E94AC17DF
:1006560095C1612F70E0950141E050E0C6010E940E
:10066600130B892B09F48DC1C756DF4F88819981F9
:10067600AA81C959D0400196A11DC756DF4F88836C
:100686009983AA83C959D040A601BE016F577F4FEF
:10069600C4010E94A91772C1612F70E0950140E064
:1006A60050E0C6010E94130B892B09F46AC1C75694
:1006B600DF4F88819981AA81C959D0400196A11D31
:1006C600C756DF4F88839983AA83C959D040A601AC
:1006D600BE016F577F4FC4010E94A9174FC1612FFA
:1006E60070E0950140E050E0C6010E94130B892B93
:1006F60009F447C1C756DF4F88819981AA81C95934
:10070600D0400196A11DC756DF4F88839983AA83DF
:10071600C959D040A601BE016F577F4FC4010E9440
:10072600A9172CC1612F70E0950140E050E0C60189
:100736000E94130B892B09F424C1C756DF4F888109
:100746009981AA81C959D0409C014A2F2F5F3F4FFA
:100756004F4FC756DF4F288339834A83C959D04044
:10076600FC012491A7FD20814BC0950140E050E09B
:1007760060EF70E0C6010E94130B892B09F401C1DA
:10078600C756DF4F88819981AA81C959D040019601
:10079600A11DC756DF4F88839983AA83C959D040C4
:1007A60086E020EB31E040E0F901DE01AD56BF4FB7
:1007B600742F0E94F916D6012C9111963C9111972F
:1007C60012964C91129713965C91139714966C910E
:1007D600149715967C91159716968C9116971796E1
:1007E6009C91A0E00E94121751F400E010E0CF5552
:1007F600DF4F288139814A81C15AD040B9C028E7E4
:10080600A601BE016F577F4FC4010E94AC17B6C048
:10081600612F70E09501A1014E0D5F1DC6010E947A
:10082600C70FAFC0612F70E0A501C6010E94561523
:10083600892B09F4A6C0C756DF4F88819981AA8102
:10084600C959D0409C014A2F2F5F3F4F4F4FC75683
:10085600DF4F288339834A83C959D040FC0124914C
:10086600A7FD2081A601BE016F577F4FC4010E94DC
:10087600EC0484C0103809F084C0C756DF4F888165
:100886009981AA81C959D0400196A11DC756DF4F4B
:1008960088839983AA83C959D040D501ED91FC91EB
:1008A6001197CF0102968D939C938081F6018083E8
:1008B6005BC0103809F065C0C756DF4F8881998143
:1008C600AA81C959D0400196A11DC756DF4F88831A
:1008D6009983AA83C959D040D501ED91FC9111970E
:1008E600CF0103968D939C9320813181428100E054
:1008F60010E03EC0103809F044C0C756DF4F88816B
:100906009981AA81C959D0400196A11DC756DF4FCA
:1009160088839983AA83C959D040F601708224C07E
:10092600D6017C92C256DF4F288139814A81CE5941
:10093600D040C756DF4F288339834A83C959D040F0
:10094600CF57DF4F19821882C158D040CB57DF4F9F
:1009560019821882C558D0408FEF9FEFCD57DF4FD1
:1009660099838883C358D04001E010E0462D920158
:10097600BE016F577F4FC4010E94AF178E0D9F1D9A
:1009860011C0C756DF4F88819981AA81C959D040C5
:100996000196A11DC756DF4F88839983AA83C9593B
:1009A600D040C7017101E80EF91EE214F3044CF4BD
:1009B6008FE490E090938100809380008FEF9FEF0B
:1009C60003C0170121CCC101CD55DF4FE2E10C94E4
:0209D600CD153D
:1009D800A6E2B0E0E2EFF4E00C94B1159F8F8E8FA1
:1009E800798F688F122FFB010190F081E02DFA8733
:1009F800E987FB01C280D380248135813C8B2B8B16
:100A08008085918599A388A30680F781E02DFA83D4
:100A1800E983FA0180809180A280B38020E030E0F1
:100A2800A901C501B4010E94901787FF06C0B7FA53
:100A3800B094B7F8B0948DE204C0F985F2FF0CC306
:100A48008BE2E981FA8180832B893C892150310925
:100A580038872F8341E050E05A8B498B06C08B8939
:100A68009C8998878F831A8A198AD501C401BF7710
:100A78000097E0E8AE07EFE7BE07D9F4212F110F82
:100A8800330B2154310989819A8149895A89840F04
:100A9800951F2A31310520F440EA51E060E003C097
:100AA80044EA51E060E00E94C41664EA71E080E024
:100AB8001EC00197A048BF4730F1212F110F330BFB
:100AC8002154310989819A8149895A89840F951F4E
:100AD8002A31310520F448EA51E060E003C04CEACD
:100AE80051E060E00E94C4166CEA71E080E00E9468
:100AF8001916E981FA81AF0160E8E984FA840B8963
:100B08001C899C01A1C220E030E0A901C501B40103
:100B18000E9490171B821C82882309F467C0F0E8A2
:100B2800FD832FE32E83212C312C20E030E040E29E
:100B380051E46B817C818D819E810E94A217F62EE3
:100B4800072F8D879B87A50194010E94951718167A
:100B580054F03FEF231A330AFB820C834D854D83F3
:100B68005B855E83E2CF1C861B862B813C814D8191
:100B78005E81C501B4010E94901787FF3DC084EDD6
:100B880028168EEF380604F5EB85FC85EF2BE1F48B
:100B980020E030E040E85AE5C501B4010E94A21700
:100BA8004B015C0120E030E040E85AE56B817C8134
:100BB8008D819E810E94A2176B837C838D839E8387
:100BC80021E030E03C872B8720E030E040E251E430
:100BD8006B817C818D819E810E949E176B837C83B3
:100BE8008D839E8331E0231A3108BFCF40E84D83BF
:100BF8005FE35E83212C312C812F110F990B9BA36E
:100C08008AA30E9459178B8FD7FC03C0DEA2CDA2FE
:100C180004C0E6E0F0E0FEA3EDA3FB8DF73641F457
:100C2800CD2809F01EC221E030E03EA32DA319C251
:100C38008B8D8D8B04C037FE25C296E69D8BEDA16A
:100C4800FEA13196FEA3EDA3FD89F63699F437FE91
:100C580008C01B821C8220E82D833FE33E83212CA1
:100C6800312C4B8D473631F08DA19EA1820D931DFD
:100C78009EA38DA39B819B87EC81ED87FD81FE8BD5
:100C88002E812A8F750164011D8E1C8E8C8D9D8D81
:100C9800EDA1FEA18E179F07C1F12B853D854E89D9
:100CA8005A8DC701B6010E949E170E94B30D2B01F1
:100CB8003C010E9461176CA38701760117FB109510
:100CC80017F910952B853D854E895A8DC301B201C0
:100CD8000E94150D6B017C01F7FAF094F7F8F09477
:100CE80020E030E040E251E46B857D858E899A8D65
:100CF8000E949E176B877D878E8B9A8F4C8D5D8D9A
:100D08004F5F5F4F5D8F4C8FC1CF20E030E040EAEE
:100D180050E46B857D858E899A8D0E94A2172B01E0
:100D28003C019B01AC01C701B6010E94901787FDE9
:100D38000BC0A3019201C701B6010E94901781114F
:100D480006C0FCA1F0FD03C0412C512C3201A301C7
:100D58009201C501B4010E947E174B015C012D89E7
:100D6800253611F0310102C0612C712C23014DA1EF
:100D78005EA1441A550AC988DA8800E010E01C868A
:100D88001B8689859A85807199279F8B8E8B641421
:100D9800750431F48B859C85892B09F49AC0A6C00B
:100DA800DD8ECC8EE88DF98D808591850597C816E6
:100DB800D90680F72B813C814D815E81C501B40144
:100DC8000E949E170E94B30D6D877E878F87988B30
:100DD8000E946117CB01EE89FF89EF2B69F4892BFB
:100DE80059F4FB8DF73641F477FE06C098012F5F62
:100DF8003F4F3D8F2C8F43C04B855C85452BB1F40D
:100E080077FE14C05FEFC51AD50AE981FA818C8D87
:100E18009D8DE80FF91F9EE29083EF81F885319749
:100E2800F887EF8321E030E03C872B87E981FA815E
:100E3800EC0DFD1D1D8F0C8F8C8D9D8D892B49F020
:100E480030E331934C8D5D8D415051095D8F4C8F4E
:100E5800F3CFC8018C0D9D1D2F813885201B310BC8
:100E68006C01EFEFCE1ADE0AE981FA81E80FF91F6B
:100E7800605D6083A9014150510958874F838501FE
:100E8800740117FB109517F910952B813C814D8142
:100E98005E816D857E858F8598890E94150D4B0131
:100EA8005C01B7FAB094B7F8B09420E030E040E2C3
:100EB80051E46B817C818D819E810E949E176B839A
:100EC8007C838D839E8351E0651A71080C8D1D8D7E
:100ED8005ECFF985F4FF0AC0E981FA81EC0DFD1DAA
:100EE8008EE2808396012F5F3F4F690149815A81C5
:100EF8004C0D5D1D5C874B87FA011082FD89F53624
:100F080009F061C0E981FA8128A139A1E20FF31F34
:100F18003197108237FE06C031942194310801E0E0
:100F280010E002C000E010E0E8A1F9A13197498182
:100F38005A81E40FF51F22E030E08AE0E82EF12C18
:100F4800CF0149815A81841B950B2114310479F012
:100F5800C101B7010E945716805D82931B01215081
:100F680031098F819885019798878F83E9CF121669
:100F7800130674F3FC013197E40FF51F012B11F4EC
:100F88002BE201C02DE220830297E981FA81E80F64
:100F9800F91F2AA13BA1215431092A31310510F04A
:100FA80025E601C025E420832F81388522503109A8
:100FB80038872F83C816D90634F4AF0160E88B85CB
:100FC8009C850E94C41649815A813A0180E8882E7E
:100FD800998591FF2EC090FD2CC0EF81F8851E16D3
:100FE8001F063CF5882DB3010E94191629813A8104
:100FF800820F931F9C0149815A81241B350BE98973
:10100800FA892E173F074CF0FC012081EF81F88503
:10101800E80FF91F20830197EDCF4F81588560E3D2
:1010280070E089819A818E0F9F1F0E9450171C8A39
:101038001B8A882DB3010E941916E984FA840B894A
:101048001C899C01682DA3018E8D9F8D0E944C0EDA
:10105800A696E2E10C94CD15598553FF00CD80E2A8
:10106800F0CC2CEF22162FEF32064CF04DA15EA1EA
:10107800241635060CF4DFCD55E65D8BFBCD35E641
:0A1088003D8BF8CD46E64D8BF5CD0B
:10109200E82F91E08091A300811190E081E02091FE
:1010A200A400293308F080E0892B09F488C18E2F2F
:1010B20090E0FC01B097EB35F10508F063C1E65D05
:1010C200FF4F0C948A172CE732E141E152E16CE7C1
:1010D20070E080E090E00E94041154C12FE739E0F3
:1010E20049E059E061E070E080E090E00E94041184
:1010F20049C12FE739E049E159E26FE470E080E04D
:1011020090E00E9404113EC12FE739E449E459E41A
:1011120061E470E080E090E00E94041133C12EE1AE
:1011220031E241E35EE360E470E080E090E00E943F
:10113200041128C12FE330E440E450E46FE370E08F
:1011420080E090E00E9404111DC12FE732E04CE1E3
:1011520050E26FE770E080E090E00E94041112C15B
:101162002EE331E441E451E461E470E080E090E098
:101172000E94041107C123E03CE040E75CE063E029
:1011820070E080E090E00E940411FCC02FE731E49F
:1011920041E45EE360E070E080E090E00E940411D0
:1011A200F1C021E031E04FE751E061E070E080E022
:1011B20090E00E940411E6C02FE738E044E152E2D9
:1011C20061E470E080E090E00E940411DBC02FE750
:1011D20038E048E058E06FE770E080E090E00E947D
:1011E2000411D0C021E631E549E455E463E470E03E
:1011F20080E090E00E940411C5C02FE732E04CE08D
:1012020052E06FE770E080E090E00E940411BAC003
:101212002FE439E449E459E469EF70E080E090E0BA
:101222000E940411AFC021E431E44FE751E461E4CC
:1012320070E080E090E00E940411A4C023EC33E748
:1012420048E15EEC63EC70E080E090E00E94041103
:1012520099C024E234E244E254E264E270E080E0C5
:1012620090E00E9404118EC020E030E740E750E792
:1012720060E070E080E090E00E94041183C020E012
:1012820030E040E050E060E070E080E090E00E94FA
:10129200041178C028E138E148E158E168E170E0E2
:1012A20080E090E00E9404116DC02EE331E549E434
:1012B20055E46EE370E080E090E00E94041162C0A9
:1012C20024E432E44FE750E460E470E080E090E030
:1012D2000E94041157C026E431E641E55EE460E471
:1012E20070E080E090E00E9404114CC021E439E4F7
:1012F20049E459E466E370E080E090E00E94041162
:1013020041C028E134E142E15FE760E170E080E062
:1013120090E00E94041136C02FE439E449E451E51B
:1013220061E270E080E090E00E9404112BC02CE7A3
:101332003AE449E459E461E370E080E090E00E941D
:10134200041120C021E039E449E259E16FE070E084
:1013520080E090E00E94041115C027E739E449E4D7
:1013620059E467E770E080E090E00E9404110AC04F
:101372002FE439E449E459E46FE770E080E090E05B
:101382000E9404118091A50088540E941615809134
:10139200A400805C0E94161580E00E9436158091A0
:1013A200A4008F5F8093A400803448F08091A30052
:1013B200811105C082E00E949C131092A40008953E
:1013C2002F923F924F925F926F927F928F929F9253
:1013D200AF92BF92CF92DF92EF92FF920F931F9341
:1013E200CF93DF9300D000D00F92CDB7DEB78091BC
:1013F200A200833008F4FEC020918A0030918B0055
:1014020040918C0050918D0060918E0070918F0000
:101412008091900090919100A0909A00B0909B00D2
:10142200C0909C00D0909D00E0909E00F0909F00A4
:101432000091A0001091A1000E94471702E00E94B3
:10144200E815222E332E442E5D836C83B72FF82F9E
:10145200E92F209360003093610040936200509323
:10146200630060936400B0936500F0936600E093BC
:101472006700209192003091930040919400509126
:1014820095006091960070919700809198009091DC
:101492009900A0909A00B0909B00C0909C00D090C0
:1014A2009D00E0909E00F0909F000091A00010919E
:1014B200A1000E94471702E00E94E815522E632EF7
:1014C200742E852E962E79838A839B8320936800BF
:1014D2003093690040936A0050936B0060936C00F4
:1014E20070936D008A8180936E0090936F00222D1D
:1014F200332D442D5D816C817B2F8F2F9E2FA52C48
:10150200B62CC72CD82CE92CF9800A811B810E94A9
:1015120047172093740030937500409376005093E0
:101522007700609378007093790080937A009093AB
:101532007B00222D332D442D5D816C817B2F8F2FDB
:101542009E2FA0E00E94121789F10E945E136B0188
:101552007C019B01AC0160E074E284E799E40E94A3
:101562009E17609370007093710080937200909345
:101572007300252D362D472D582D692D7981802F09
:10158200912F0E945E1320E030E048EC52E40E946A
:10159200A217A70196010E949E1760937C00709388
:1015A2007D0080937E0090937F0010C010927000A7
:1015B20010927100109272001092730010927C00CF
:1015C20010927D0010927E0010927F001092A20075
:1015D2001092820010928300109284001092850073
:1015E2001092860010928700109288001092890053
:1015F2001DBC1CBC0F900F900F900F900F90DF91AD
:10160200CF911F910F91FF90EF90DF90CF90BF90FD
:10161200AF909F908F907F906F905F904F903F9090
:041622002F90089568
:101626000F931F93CF93DF93FC01D901683871059F
:1016360031F194F461387105B1F12CF4603871051B
:1016460009F478C09FC06238710509F459C064383E
:10165600710509F46FC096C0603A710509F448C077
:101666002CF46039710509F44BC08CC0603C7105DF
:1016760009F476C0603F710509F472C083C0CD914C
:10168600DC911197CE0102968D939C93452B39F0F0
:101696009881892F880F880B908381835BC088810E
:1016A6008083118268C0CD91DC911197CE0104969A
:1016B6008D939C93452B99F088819981AA81BB8152
:1016C600AC01BD01770F440B542FBA01808391837F
:1016D600A283B383448345834683478328C0088116
:1016E60019812A813B81008311832283338345C07C
:1016F600CD91DC911197CE0102968D939C9323C0D8
:10170600CD91DC911197CE0108968D939C937881AB
:1017160069815A814B813C812D819E818F817083A5
:10172600618352834383348325839683878381E051
:1017360090E02AC0CD91DC911197CE0102968D934F
:101746009C93452BA1F099812881892F880F880BBE
:101756002083918382838383848385838683E6CFF4
:10176600CD91DC911197CE0102968D939C930881C1
:1017760019810083118312821382148215821682C4
:101786001782D5CF80E090E0DF91CF911F910F9126
:021796000895B4
:101798001F920F920FB60F9211242F923F924F92E1
:1017A8005F926F927F928F929F92AF92BF92CF92E9
:1017B800DF92EF92FF920F931F932F933F934F93D4
:1017C8005F936F937F938F939F93EF932091820002
:1017D800309183004091840050918500609186008B
:1017E80070918700809188009091890000E10E94A3
:1017F800E81526B437B4A22CB32CC12CD12CE12C7B
:10180800F12C00E010E00E943E17E091A200E130C8
:10181800D9F018F0E23079F142C020939A00309361
:101828009B0040939C0050939D0060939E00709392
:101838009F008093A0009093A10081E08093A20074
:101848008EB58F7B8EBD2DC0209392003093930070
:10185800409394005093950060939600709397007E
:10186800809398009093990082E08093A2008EB5AF
:1018780080648EBD16C020938A0030938B004093FD
:101888008C0050938D0060938E0070938F0080932E
:1018980090009093910083E08093A20002C0109280
:1018A800A200EF919F918F917F916F915F914F91DE
:1018B8003F912F911F910F91FF90EF90DF90CF9064
:1018C800BF90AF909F908F907F906F905F904F9058
:0E18D8003F902F900F900FBE0F901F9018950D
:1018E600FF920F931F93CF93DF9386E00E942F16EC
:1018F60020E030E040E051E460917C0070917D0092
:1019060080917E0090917F000E94A21720E030E037
:1019160048EC52E40E949E170E9461178B016930C1
:10192600710514F008E010E0112314F400E010E053
:1019360020E430E44EE752E062E070E080E090E0C0
:101946000E940411C0E00BC022E032E042E052E007
:1019560062E070E080E090E00E940411CF5F8C2F7F
:1019660090E08017910784F322E032E04EE750E4DE
:1019760060E470E080E090E00E940411F12C0BC05E
:1019860020E430E440E450E460E470E080E090E07D
:101996000E940411F3948F2D90E0C8E0D0E0C01BA4
:1019A600D10B8C179D0764F320E430E44EE752E038
:1019B60062E070E080E090E00E940411F12C0BC020
:1019C60022E032E042E052E062E070E080E090E047
:1019D6000E940411F3948F2D90E08017910784F3F1
:1019E60022E032E04EE750E460E470E080E090E010
:1019F6000E94041110E00BC020E430E440E450E4FF
:101A060060E470E080E090E00E9404111F5F812F87
:101A160090E08C179D0784F3DF91CF911F910F9172
:041A2600FF90089590
:101A2A00A5E1B0E0EBE1FDE00C94B11547015801E6
:101A3A000E94A2172B013C01A80197010E947E1760
:101A4A00162FC72ED82EF92E862F9C2DAD2DBF2DE1
:101A5A0089839A83AB83BC83AA81FB81EC81ED8065
:101A6A003E802F8008850D8B5E2F5F71212F3A2FC4
:101A7A004F2F60E070E080E090E0211531054105CC
:101A8A0000E15007610571058105910509F05EC005
:101A9A005E2F6E2D732D822D9D8904E30E94781589
:101AAA002D873E874F87588B698B7A8B8B8B9C8BC4
:101ABA008D859E8597708F3F974009F447C0A30193
:101ACA009201612F7C2D8D2D9F2D0E947D179B01E8
:101ADA00AC01C501B4010E9490178823B9F1498667
:101AEA005A866B867C8629853A854B855C85C50135
:101AFA00B4010E947E17B62E872E982EA92E262F65
:101B0A00372F482F592F612F7C2D8D2D9F2D0E9405
:101B1A009017811118C02B2D8B2D982DA92DBA2D18
:101B2A0089839A83AB83BC833A814B815C816E2D16
:101B3A00732D822D9D89A1E00E940617122FC32EB4
:101B4A00D42EF52E03C01B2D6401FA2C612F7C2D97
:0C1B5A008D2D9F2D6596E2E10C94CD15B9
:101B66004F925F926F927F928F929F92AF92BF92A7
:101B7600CF92DF92EF92FF92CF93DF93CDB7DEB78E
:101B860028970FB6F894DEBF0FBECDBF6B017C0160
:101B9600DC01CB0147E1B695A795979587954A95C0
:101BA600D1F799278F579109873191059CF597FDB4
:101BB60036C088248A94982C3FE7A32EB12C04C003
:101BC600B594A794979487948A95D2F7D501C401C2
:101BD6008C219D21AE21BF21892B8A2B8B2BD1F005
:101BE60020E030E040E85BE7C701B6010E947E17BF
:101BF6006D837E838F839887F7FE04C0C80CD91C3B
:101C0600EA1CFB1C80949094A094B094C820D92020
:101C1600EA20FB205C2D4D2D3E2D2F2D21C020E0EE
:101C260030E040E85BE7C701B6010E947E17698392
:101C36007A838B839C83F7FE0FC0D701C601880F7A
:101C4600991FAA1FBB1F892B8A2B8B2B19F350E0D8
:101C560040E030E82FEB04C050E040E030E020E008
:101C6600652F742F832F922F28960FB6F894DEBF18
:101C76000FBECDBFDF91CF91FF90EF90DF90CF9059
:101C8600BF90AF909F908F907F906F905F904F9096
:021C96000895AF
:101C98002F923F924F926F927F928F92AF92BF9204
:101CA800CF92DF92EF92FF920F931F93CF93DF9320
:101CB800CDB7DEB766970FB6F894DEBF0FBECDBFBF
:101CC8005C013A01862E6901C701817099279C8BB6
:101CD8008B8BE0FC1DC020173107D4F47801EC1879
:101CE800FD08FE8AED8AA70191E1E916F10410F0DA
:101CF80040E150E060E270E0CE0101969A8B898B5A
:101D08000E94501789899A891C0120E8422E0BC02D
:101D18009601682DA301C5010E94D013C016D106F3
:101D2800ECF2C60125C090E1E916F10458F020E173
:101D380030E0642DA101C5010E94D01380E1E81AAA
:101D4800F108F1CF2D893E892F70332789899A8927
:101D5800AC0160E8C5010E94D0138B899C89892B4E
:101D680031F49601682DA301C5010E94D013C80162
:101D780066960FB6F894DEBF0FBECDBFDF91CF9148
:101D88001F910F91FF90EF90DF90CF90BF90AF9091
:0E1D98008F907F906F904F903F902F90089506
:101DA6000F931F93CF93DF93CDB7DEB760970FB630
:101DB600F894DEBF0FBECDBF0E94AA1480E00E9439
:101DC6002F16809173008F93809172008F9380916C
:101DD60071008F93809170008F9384E691E0A0E06C
:101DE600AF939F938F938E010F5F1F4F1F930F9398
:101DF6000E947F16C8010E94DF1682E00E942F16FD
:101E060080917F008F9380917E008F9380917D00DB
:101E16008F9380917C008F9382E791E0A0E0AF934F
:101E26009F938F931F930F930E947F16C8010E9462
:101E3600DF1684E00E942F16209160003091610029
:101E4600409162005091630060916400709165005A
:101E560080916600909167000E945E1320E030E05A
:101E66004AE754E40E949E179F938F937F936F9344
:101E76008FE791E0A0E0AF939F938F931F930F930B
:101E86000E947F16C8010E94DF160FB6F894DEBFC7
:101E96000FBECDBF60960FB6F894DEBF0FBECDBFA6
:0A1EA600DF91CF911F910F91089575
:101EB00010C00E946F1758F00E94681740F029F474
:101EC0005F3F29F00C94841751110C9477170C94F0
:101ED000A6170E94F41468F39923B1F3552391F3E4
:101EE000951B550BBB27AA2762177307840738F089
:101EF0009F5F5F4F220F331F441FAA1FA9F335D0E6
:101F00000E2E3AF0E0E832D091505040E695001C99
:101F1000CAF72BD0FE2F29D0660F771F881FBB1F53
:101F2000261737074807AB07B0E809F0BB0B802D31
:101F3000BF01FF2793585F4F3AF09E3F510578F05D
:101F40000C9484170C9477175F3FE4F3983ED4F316
:101F5000869577956795B795F7959F5FC9F7880F31
:101F6000911D9695879597F90895E1E0660F771F83
:101F7000881FBB1F621773078407BA0720F0621B14
:0E1F8000730B840BBA0BEE1F88F7E0950895E3
:101F8E00CF93DF93DC01F90164387105D9F164F464
:101F9E006138710521F16238710509F440C060386D
:101FAE00710509F054C02EC060397105C1F184F479
:101FBE006838710509F04BC0C081D181CE010296FF
:101FCE0091838083E881F981ED93FC9340833CC03B
:101FDE00603A7105B9F0603C7105A1F038C0C0815E
:101FEE00D181CE01029691838083E881F981ED93B0
:101FFE00FC93052E000C660B770B40835183628396
:10200E00738322C0C081D181CE01029691838083D9
:10201E00E881F981ED93FC935183408315C0C08113
:10202E00D181CE01029691838083E881F981ED936F
:10203E00FC9351834083852F880F880B8283838383
:10204E00848385838683878381E090E002C080E06D
:08205E0090E0DF91CF9108959D
:102066000FC00E94681738F00E946F1720F0952362
:1020760011F00C9484170C94A61711240C9477175E
:102086000E94F41470F3959FC1F3950F50E0551F0D
:10209600629FF001729FBB27F00DB11D639FAA27B7
:1020A600F00DB11DAA1F649F6627B00DA11D661F06
:1020B600829F2227B00DA11D621F739FB00DA11D27
:1020C600621F839FA00D611D221F749F3327A00DE1
:1020D600611D231F849F600D211D822F762F6A2F7D
:1020E60011249F5750409AF0F1F088234AF0EE0FE2
:1020F600FF1FBB1F661F771F881F91505040A9F70F
:102106009E3F510580F00C9484170C9477175F3F1F
:10211600E4F3983ED4F3869577956795B795F7954A
:10212600E7959F5FC1F7FE2B880F911D96958795C2
:0421360097F9089578
:10213A0011C00E94681738F00E946F1720F039F416
:10214A009F3F19F426F40C94A6170EF4E095E7FBCA
:10215A000C948417E92F0E94F41458F3BA176207F3
:10216A0073078407950720F079F4A6F50C9476177F
:10217A000EF4E0950B2EBA2FA02D0B01B901900198
:10218A000C01CA01A0011124FF27591B99F0593FDC
:10219A0050F4503E68F11A16F040A22F232F342F24
:1021AA004427585FF3CF469537952795A795F04072
:1021BA005395C9F77EF41F16BA0B620B730B840B87
:1021CA00BAF09150A1F0FF0FBB1F661F771F881F3F
:1021DA00C2F70EC0BA0F621F731F841F48F4879597
:1021EA0077956795B795F7959E3F08F0B0CF939589
:0E21FA00880F08F09927EE0F979587950895A6
:102208009F92AF92BF92CF92DF92EF92FF920F937D
:102218001F93CF93DF93922EA32EB42EC52ED62EC6
:10222800E72EF82ED92FC0E030C08091A500885441
:102238000E9416158091A400805C0E9416150C2F30
:1022480010E0000F111F000F111F000F111F292D83
:102258003A2D4B2D5C2D6D2D7E2D8F2D9D2F0E949F
:102268007815822F0E9436158091A4008F5F809385
:10227800A400803448F08091A300811105C082E059
:102288000E949C131092A400CF5FC53070F2DF91BA
:10229800CF911F910F91FF90EF90DF90CF90BF905B
:0622A800AF909F90089525
:1022AE008130A9F028F0823009F1833071F13CC001
:1022BE006130E9F118F0623039F003C08AE390E042
:1022CE00089580E090E0089589E390E008956130EC
:1022DE0089F118F0623039F003C087E390E0089579
:1022EE0080E090E0089586E390E00895613029F152
:1022FE0018F0623039F003C084E390E0089580E076
:10230E0090E0089583E390E008956130C9F018F0ED
:10231E00623039F003C081E390E0089580E090E0F0
:10232E00089580E390E0089580E090E008958BE3B7
:10233E0090E0089588E390E0089585E390E0089595
:06234E0082E390E0089517
:102354006F927F928F92EF92FF920F931F93CF937E
:10236400DF93CDB7DEB761970FB6F894DEBF0FBE2B
:10237400CDBFFE01319651E1DF011D925A95E9F777
:10238400A2E0B1E0BA83A9839C838B8377FF09C061
:102394008FE490E090938100809380008FEF9FEF13
:1023A40019C03901842E7C01615071097F836E83C9
:1023B4009801682DA301CF010E9401164885598513
:1023C4002E813F814217530708F49A01F701E20F67
:1023D400F31F108261960FB6F894DEBF0FBECDBF17
:1023E400DF91CF911F910F91FF90EF908F907F908D
:0423F4006F90089549
:1023F800CF92DF92EF92DC0190E0292F30E0220F9C
:10240800331F6901032E000CEE086E2DA6014657F6
:102418005E4F6F4F6A01E62EFA018491E7FC8081D6
:1024280081110DC02F5F3F4F032E000C440B265720
:102438003E4F4F4FF901849147FD808124C0CD90D4
:10244800DD90EC901297F6014491E7FC40818413EB
:1024580015C02F5F3F4F032E000C440B26573E4FED
:102468004F4FF901949147FD90815FEFC51AD50A46
:10247800E50ACD92DD92EC92129701C09F5F9B30E6
:0E24880008F4BBCF892FEF90DF90CF9008951E
:102496000F931F93CF93DF93DB012D913C911197FF
:1024A60030FF25C017964D915C91189715962D9182
:1024B6003C9116974217530778F41296ED91FC91CA
:1024C6001397808312962D913C9113972F5F3F4F60
:1024D60013963C932E93129717962D913C9118972D
:1024E6002F5F3F4F18963C932E93179715C01D9656
:1024F600ED91FC911E97309719F48FEF9FEF0CC06A
:102506008B01EC010995892BC1F7F801878190852C
:10251600019690878783CE01DF91CF911F910F910E
:02252600089516
:10252800CF939B01482FF901849147FD8081803228
:10253800C9F1682F082E000C770B695071096530B6
:10254800710580F18B3249F5A0E0B0E02F5F3F4F75
:102558004F4F02C0A0E0B0E080E090E0CAE0F9018F
:10256800649147FD6081062E000C770B605371095A
:102578006A30710560F4C89FF001C99FF00D1124FD
:102588002F5F3F4F4F4FCF01861B970BE8CFAB2BE9
:1025980069F491958195910909C08D32D9F6A1E028
:1025A800B0E0D4CF2F5F3F4F4F4FBDCFCF910895AD
:1025B80041E060E081E00E945C1441E062E081E07B
:1025C8000E945C1441E061E081E00E945C1441E0FB
:1025D80066E081E00E945C1441E064E081E00E94D2
:1025E8005C1441E065E081E00E945C1461E080E0F9
:1025F8000E94921641E066E081E00E94831483E025
:102608000E949C138EE30E94161588EB0E941615F3
:102618001092A50080E40E9416151092A40080EC88
:102628000E9416158FE30E94161581E00E949C13E4
:062638001092A3000895BA
:10263E001F920F920FB60F9211242F933F934F9329
:10264E005F936F937F938F939F93AF9320918200AD
:10265E0030918300409184005091850060918600F6
:10266E00709187008091880090918900A1E00E946E
:10267E00061720938200309383004093840050937A
:10268E0085006093860070938700809388009093F6
:10269E008900AF919F918F917F916F915F914F9133
:0E26AE003F912F910F900FBE0F901F90189527
:1026BC00E894F92F96EBFF2381F0121613061406FB
:1026CC00440B9395F695879577956795579540406C
:1026DC00FF23B9F71BC099270895882351F498500C
:1026EC00D2F7872B762F652F542F432F322F20E0D4
:1026FC00B1F3121613061406440B88233AF09A957C
:10270C00440F551F661F771F881FCAF755234AF4BD
:10271C00440F551F11F460FF04C06F5F7F4F8F4F44
:0C272C009F4F880F9695879597F90895A8
:10273800813089F028F08230C9F0833011F1089592
:1027480040E064E081E00E94831440E065E081E0BD
:102758000E948314089541E064E081E00E9483149C
:1027680040E065E081E00E948314089540E064E061
:1027780081E00E94831441E065E081E00E948314B7
:10278800089541E064E081E00E94831441E065E03F
:0827980081E00E948314089502
:1027A0006F927F928F92CF92DF92EF920F931F934F
:1027B000CF93DF938C016A01E62EE9013A01862E60
:1027C000620E731E811C37FD8A94C614D704E80478
:1027D00079F0F6018491E7FC8081B801082E000CA5
:1027E000990B0E944B128FEFC81AD80AE80AEDCF56
:1027F000CE01DF91CF911F910F91EF90DF90CF909D
:082800008F907F906F90089506
:102808000E94FC1488F09F5798F0B92F9927B75168
:10281800B0F0E1F0660F771F881F991F1AF0BA957C
:10282800C9F714C0B13091F00E947617B1E008954D
:102838000C947617672F782F8827B85F39F0B93F3F
:10284800CCF3869577956795B395D9F73EF490952F
:0E2858008095709561957F4F8F4F9F4F08952B
:1028660040E066E083E00E945C1441E063E081E0C2
:102876000E945C140E949A170E94D2160E94EC16BF
:102886008AE50E9443160E9494150E94DC120E945B
:10289600AA140E94E1090E94D30E0E94730C2FEF26
:1028A60089E698E1215080409040E1F700C00000A1
:0228B600F0CF61
:1028B800CF93DF93D62FC42F60E00E945711CC230B
:1028C80019F0C13071F018C0FC01408121E030E0FE
:1028D80002C0220F331FDA95E2F7209524232083C4
:1028E8000BC0FC01408121E030E002C0220F331F01
:0E28F800DA95E2F7242B2083DF91CF9108952B
:10290600CF93DF93D62FC42F61E00E945711CC23BB
:1029160019F0C13071F018C0FC01408121E030E0AF
:1029260002C0220F331FDA95E2F720952423208375
:102936000BC0FC01408121E030E002C0220F331FB2
:0E294600DA95E2F7242B2083DF91CF910895DC
:10295400CF93DF93D0E013C08D2F0E942F1683E016
:102964000E949C13C0E008C080E48C0F0E941615DE
:1029740080E00E943615CF5FC034B0F3DF5FD830FB
:1029840058F30E94B51681E00E949C131092A30094
:0C29940080E00E942F16DF91CF91089583
:1029A000990F0008550FAA0BE0E8FEEF1616170660
:1029B000E807F907C0F012161306E407F50798F0C8
:1029C000621B730B840B950B39F40A2661F0232BE1
:1029D000242B252B21F408950A2609F4A140A6955D
:0829E0008FEF811D811D089598
:1029E80057FD9058440F551F59F05F3F71F04795B8
:1029F800880F97FB991F61F09F3F79F0879508959D
:102A0800121613061406551FF2CF4695F1DF08C0BB
:102A1800161617061806991FF1CF869571056105D8
:042A28000894089571
:102A2C00CF93C82F40E062E081E00E94831440E025
:102A3C0061E081E00E9483146C2F80E00E943517C6
:102A4C0041E060E081E00E9483148AE18A95F1F70D
:102A5C0000C040E060E081E00E948314CF910895B3
:102A6C00CF93C82F41E062E081E00E94831440E0E4
:102A7C0061E081E00E9483146C2F80E00E94351786
:102A8C0041E060E081E00E9483148AE18A95F1F7CD
:102A9C0000C040E060E081E00E948314CF91089573
:102AAC00FA0160387105CCF0623871051CF063389E
:102ABC00710599F4A081B1819D012C5F3F4F318349
:102ACC0020834D915D916D917C91FC0140835183EC
:102ADC006283738381E090E0089580E090E0089534
:102AEC0097FB10F8169400080F93083098F00850D4
:102AFC00232F342F452F562F672F782F892F902D6A
:102B0C00F4CF059497958795779567955795479545
:0C2B1C00379527950A95AAF70F910895A8
:102B28001FBC8EB583608EBD8EB580648EBD8EB59C
:102B380080688EBD1DBC1CBC109282001092830060
:102B480010928400109285001092860010928700DF
:0A2B58001092880010928900089581
:102B62002F923F924F925F926F927F928F929F929B
:102B7200AF92BF92CF92DF92EF92FF920F931F9389
:102B8200CF93DF93CDB7DEB7CA1BDB0B0FB6F8943A
:082B9200DEBF0FBECDBF0994A8
:102B9A002A88398848885F846E847D848C849B84E3
:102BAA00AA84B984C884DF80EE80FD800C811B81F1
:102BBA00AA81B981CE0FD11D0FB6F894DEBF0FBE20
:062BCA00CDBFED010895EE
:102BD0000F93083090F0982F872F762F652F542F62
:102BE000432F322F22270850F4CF220F331F441FC8
:102BF000551F661F771F881F991F0A95B2F70F91FF
:022C0000089535
:102C0200A2E0B0E0E7E0F6E10C94BF158C013A8354
:102C120029839E012F5F3F4F0E94DB00F801208134
:102C220024FF02C08FEF9FEF2296E4E00C94DB15A5
:102C3200CF92DF92EF926B01E82EA82FCB01FC011D
:102C42002491A7FD2081222319F00196A11DF7CF1F
:0C2C52008C199D09EF90DF90CF90089541
:102C5E00CF93883078F4C82F81E00E949C13C093E4
:102C6E00A50088EB8C0F0E9416151092A40080E42C
:082C7E000E941615CF91089584
:102C8600853688F4982F80E064E670E00E94571637
:102C960061506CBF83B7816083BF83B7826083BF97
:082CA60083B78B7F83BF089503
:102CAE0097FB072E16F4009407D077FD09D00E94EB
:102CBE006B1607FC05D03EF4909581959F4F0895B5
:082CCE00709561957F4F089598
:102CD600AA1BBB1B51E107C0AA1FBB1FA617B7073C
:102CE60010F0A61BB70B881F991F5A95A9F7809558
:082CF6009095BC01CD01089589
:102CFE00A0E0B0E0E5E8F6E10C94C1159E01265F78
:102D0E003F4F4F81588569858D819E810E941E1788
:062D1E00E2E00C94DD155B
:102D2400CF93C62F60E00E945711CC2319F0C13015
:102D340021F006C0FC01108203C02FEFFC012083A8
:042D4400CF9108958E
:102D4800092E0394000C11F4882352F0BB0F40F4B1
:102D5800BF2B11F460FF04C06F5F7F4F8F4F9F4FF1
:022D68000895CC
:102D6A0040E066E081E00E94831485E38A95F1F7EA
:0E2D7A00000041E066E081E00E9483140895AD
:102D88009A01462FDC01F901549147FD50815D936A
:0C2D98002F5F3F4F4F4F5111F6CF0895B1
:102DA40089B7806289BF89B7846089BF8EB5806422
:0A2DB4008EBD8EB580688EBD0895B7
:102DBE00CF93DF93EC0103C00E94490821968881CE
:0A2DCE008111FACFDF91CF91089533
:102DD80083B7806483BF83B7886083BF83B78F7EE0
:0A2DE80083BF83B7806283BF0895A4
:102DF200992777FD05C005900D920197E1F7089597
:0A2E020001900D920197E1F7089589
:102E0C000024A7FD00942A0F301D401D501D601D8D
:082E1C00701D801D901D08953A
:102E24000024A7FD00942A173005400550056005CD
:082E340070058005900508956A
:102E3C000F931F9389019A01462F6FEF7FE70E9432
:082E4C00AA111F910F910895D6
:102E5400EC010E94B7170E94B617CE010E94B81762
:062E6400CE010E94B4172C
:102E6A00CF93C62F61E00E945711FC01C083CF9116
:022E7A000895B9
:102E7C002A0D3B1D4C1D5D1D6E1D7F1D801F911F5E
:022E8C000895A7
:102E8E002A193B094C095D096E097F09800B910BCC
:022E9E00089595
:102EA000FC01480F591FE417F50711F06193FBCFA0
:022EB000089583
:102EB2009C01215431092A31310508F480620895B8
:0E2EC2000E9404146894B1110C9477170895BF
:0E2ED00000240A94161617061806090608951F
:0E2EDE0000240A941216130614060506089521
:0E2EEC00E894BB2766277727CB0197F9089556
:0E2EFA005058BB27AA270E949D100C94A416C6
:0C2F080097F99F6780E870E060E0089592
:0C2F1400EE0FFF1F0590F491E02D0994D2
:0A2F20000E94D01408F481E0089527
:0A2F2A000E94D01408F48FEF089500
:082F34008FB780688FBF08957C
:082F3C000E94580F0C94A4162A
:082F44000E9433100C94A41646
:062F4C009FEF80EC0895E8
:062F520080E090E008950C
:062F580080E090E0089506
:062F5E0080E090E0089500
:042F64000C940000C9
:042F68000E94B00013
:022F6C000895C6
:022F6E000895C4
:022F70000895C2
:00000001FF
